:040000006F10A00DD0
:100004000000000000000000D60C0000D80C000026
:1000140000000000D81000000000000000000000F4
:10002400D8100000D81000000000000000000000FC
:10003400D810000000000000D810000000000000EC
:10004400D8100000D8100000D8100000D81000000C
:10005400D8100000D8100000D8100000D8100000FC
:10006400D8100000D8100000D8100000D8100000EC
:10007400D8100000D8100000D8100000D8100000DC
:10008400D8100000D8100000D8100000D8100000CC
:10009400D8100000D8100000D8100000D8100000BC
:1000A400D8100000D8100000D8100000D8100000AC
:1000B400D8100000D8100000D8100000D81000009C
:1000C400D8100000D8100000D8100000D81000008C
:1000D400D8100000D8100000D8100000D81000007C
:1000E400D8100000D8100000D8100000D81000006C
:1000F400D8100000D8100000D8100000D81000005C
:1001040000000000D8100000D8100000D810000033
:10011400D8100000D8100000D8100000D81000003B
:10012400D8100000D8100000D8100000D81000002B
:10013400D8100000D8100000D8100000D81000001B
:10014400D8100000D8100000D8100000D81000000B
:10015400D8100000D4040000D8100000D81000000B
:10016400D8100000D8100000D8100000D8100000EB
:10017400D8100000D8100000D8100000D8100000DB
:10018400D8100000D8100000D8100000D8100000CB
:10019400D8100000D8100000D8100000D8100000BB
:1001A400000000000000000000000000000000004B
:0C01B4000000000000000000000000003F
:1001C000397101436EC619A0397141536AC866CAB4
:1001D00062CC5ECE19A0397101535AD056D252D496
:1001E0004ED64AD826DA22DC06DE3301614082820E
:1001F00041114AC026C222C406C68282B24D4101C4
:10020000024D924C224CB24B4101024B924A224A7F
:10021000B2494101024992442244B24041018280E4
:100220003D432A876373C3029377F700BDEFADE5C3
:10023000937606FF3D8ABA960CC34CC30CC74CC7D5
:100240004107E36BD7FE11E28280B306C3408A0602
:100250009702000096966780A6002307B700A306C2
:10026000B7002306B700A305B7002305B700A30412
:10027000B7002304B700A303B7002303B700A3020A
:10028000B7002302B700A301B7002301B700A30002
:10029000B7002300B700828093F5F50F9396850091
:1002A000D58D93960501D58D61B79396270097025A
:1002B000000096968682E78086FA9680C1171D8F89
:1002C0003E96E374C3F8A5B79387218298239306DB
:1002D00000101377F70798A39387A1819A2363915E
:1002E000E602B737024003C767401377C70F23837F
:1002F000E74003C76740136727002383E7408280F6
:100300009A2393060020639FE600B737024003C795
:1003100067401377C70F2383E74003C7674013671E
:100320003700E1BF9A2393060030639FE600B7379A
:10033000024003C767401377C70F2383E74003C713
:1003400067401377F70F55BF9E2313070040631FC5
:10035000F70437370240834667409307074093F618
:10036000C60F2303D7408346674093E61600230356
:10037000D7408346074093E606082300D740370757
:100380000400210798CBD84B1367F70FD8CB37075A
:10039000002013070700F8D3130750032392E70E3A
:1003A000130700FD2380E70E0947B8A78280EFF20C
:1003B0003FE40545EF1040180145EF106012054578
:1003C000EF1060100545EF1040130545EF10801445
:1003D0000565854513050580EF10600725BD3707C6
:1003E0000200B7370240090723A8E74013070004BB
:1003F000239CE74813070020239EE74813870184C6
:1004000023AEE7401387018823A0E742138701A8A2
:1004100023AEE744239C074C238D074CA38D074C48
:10042000239E074C0947238FE74CA38F074C138764
:1004300001C88147C1463306F7002300060085073F
:10044000E39BD7FE8280EFF2BFDA411137340240DE
:1004500029CD994729452300F440EF10A011834787
:1004600004409304044093F7B70F2300F440C147BE
:10047000A300F440930790022300F4409307700216
:100480002301F440A93F83470440280093E7070174
:100490002300F440930750057C8485472305010021
:1004A0003EC6EF00B0734101B5B399472300F44055
:1004B0002945EF10200C834704403707200093F7AD
:1004C000B70F2300F440B7E700E023A4E7180F10AC
:1004D0000000D1BF011126CC22CE4ACA4EC852C656
:1004E00056C45AC25EC0373402401386418223107C
:1004F00006001304044038243C349384418213776B
:10050000F70F937627006384061E93F7F70F13F710
:1005100007036301071293060002631AD70093F6DC
:10052000F7036388E60213071002638FE60CB73700
:10053000024009472385E740938707407244E2441D
:100540005249C249324AA24A124B824B056173009A
:1005500020309387C1819E231389C181C207C18343
:1005600081E7A147A30DF40C83C7E18193F7070648
:10057000B5E783C78181154793F7F70F6388E706CF
:100580001947639EE706835709001307F003130416
:1005900000046366F700035409004204418082A00E
:1005A0009384818283A904002286CE8513850184E9
:1005B000EF00B07F83570900A29923A03401818FF7
:1005C000C207C1832310F900B7370240239C874C30
:1005D00003C7A74D13478700238DE74C83C72182AC
:1005E000E207E187E3D507F4C53191B703C711816D
:1005F000B73702401377F70FA381E740C5B7B73786
:100600000240239C074CD9BF93F70704E38107F20C
:100610008347E40D054793C78700230FF40C238617
:10062000E1828347E40D93F7C70F93E72700230F79
:10063000F40CF5BD13F7F70315CF8546E319D7EE94
:1006400093F70704E38507EE8347F40D93C787000C
:10065000A30FF40C8347F40D93F7C70F93E727001C
:10066000A30FF40C5E24C207C18323A8F182A386E2
:10067000E18275BD5A2493F7070493160701C182DE
:1006800016A2E38607EA9387E1819823137707068A
:100690001DCB982313060002137707066315C702C4
:1006A0009C230547FD8B6390E70283D7A18193F7D5
:1006B000F70F91EB83C7818129476316F70003C7C2
:1006C00001842388E1809387C1819A23158F420793
:1006D00041839AA39E23C207C183E39A07E4B737F5
:1006E0000240239C074C2147238DE74C89B5937723
:1006F000070263890752A947230DF40CA30DF40CDC
:10070000938601849C221385E1811CA19C32FA22EC
:10071000138681811CA2AE229387C1819AA313877D
:10072000018203D846000EA39385A1812390050181
:10073000034805001389C181138AE18113780806F3
:100740001387A1811385018493870182630E080AB0
:1007500083470A00130700021304F00F93F70706FC
:10076000639FE70083470A000547FD8B6387E70225
:1007700099C70D4701446364F7001304F00F8347E2
:100780000A00E207E18763D00710035709009E20A3
:1007900063FBE70E2310F900FDA09A2101441377B3
:1007A000F70F71FF182209461377F70F6309C70483
:1007B000A946E306D7FC1304F00FE312F7FC9E21D1
:1007C000C207C183CDFF03570900FD46930700020E
:1007D00063E6E60083570900C207C1839EA01307A2
:1007E00000043E866374F700130600044206856524
:1007F00041829385C56DEF00505B014449B703C743
:1008000001819EA098A2A5BF14222D4693F6F60F53
:10081000636FD62A05668A061306C665B2969442A9
:1008200082869A238D462183938981826304D70E21
:1008300063E0E6060546630FC70689476305F708C8
:100840001304F00F035709009E2063F4E700231000
:10085000F900835709001307F003130B00046367C3
:10086000F700035B0900420B135B0B0183AB09002C
:10087000239064015A86DE85138501845E9BEF0018
:10088000D05223A069019307F00F6315F41881A4D7
:100890009D46630AD70C930620026309D714994733
:1008A000E310F7FA85671387477323A0E90083C72E
:1008B000477301A885671387876C83C7876C23A05C
:1008C000E9009EA0C5A0B737024083C687408D8A45
:1008D00093877181138741816395C60294A3930620
:1008E000002016A39C2305476312F702B7070020D8
:1008F00003A7070823A0E9003C333823A207BA97CF
:10090000C9B72380070093060004E1BF05671307FA
:10091000C76BCDB79E23054793F7F70F6385E702B3
:1009200081CF09476389E70285671387077423A08E
:10093000E90083C7077471B71387C18023A0E9005A
:1009400083C7C180BDBF85671387C76F23A0E90038
:1009500083C7C76FBDB785671387C77023A0E9003A
:1009600083C7C770B9BF9387718198238546639DFC
:10097000E60285679387C76BA023BC33856537057F
:100980000020A2073E941306E4FF9385E56B130550
:100990006506EF009041B70700209387470623A024
:1009A000F90082A0014479BD9C231304F00F93F752
:1009B000F70FE39907E8B707002003A407083705F6
:1009C00000201305A50330303C20930524002206A7
:1009D0003E967916EF00703DB70700209387870396
:1009E00023A0F9003C303820A20711BF9E23130436
:1009F000F00F93F7F70FE39707E485679387C76DC9
:100A000023A0F900930700026DBD9E2393F7F70F13
:100A1000A388F18083470A0003570900E207E187B2
:100A200063D1071E9307000463E6E70083570900BC
:100A3000C207C183035709009EA01D8F420741834F
:100A40002310E90037370240231CF74CA147230D40
:100A5000F74C69A083C72181035709001CA1854772
:100A6000E3FAE7FA2310F90075B79E2393F7F70F1F
:100A70002389F1800547A389E18069BF83460A0085
:100A8000FD8A91EE9E23054793F7F70F6391E704E4
:100A90009387618198231377E70F98A3A5BF8346B7
:100AA0000A000946FD8A6394C6029E2393F7F70F56
:100AB00099EF1A23B737024085461377F70F9387CC
:100AC00007406302D702930610086301D702B737C5
:100AD00002402D47238DE74CA38DE74CB7370240EA
:100AE0001307000281BCA38F070C2DB7238F070CBF
:100AF00015B783460A00FD8ABDE29623054693F6A4
:100B0000F60F639EC600856783C7376C93F70702AD
:100B1000DDDF93876181982313671700BDBF9E2394
:100B2000894693F7F70FE394D7FA1E239306001034
:100B30006381F6021E2393060020638CF6001E23B9
:100B4000930600306387F6001E2313070040E3136B
:100B5000F7EC938721829823136707083DBF8346EC
:100B60000A000946FD8AE397C6EA9E2393F7F70F2A
:100B7000E39207EA1E23054793F7F70FE399E7F49B
:100B8000B737024003C7F74D13673700A38FE74C11
:100B900051B583470A00231005008946FD8B6397F2
:100BA000D7041A23B737024085461377F70F938788
:100BB0000740630FD700930610081304F00F631368
:100BC000D70283C7E70D0D478D8B639CE70001A813
:100BD00083C7F70D0D4701448D8B6395E70085476B
:100BE0001CA101440357090089475DB683470A00E9
:100BF0000144FD8BE5FB83C76181858BE5D714A19B
:100C0000D5B74207B737024041839387074019E7BA
:100C1000239C070C2147238DE70CC9B52147A38DE1
:100C2000E70C6DBD9377170085C323890180A388E6
:100C30000180238B0180A3890180A3010400EFF0D0
:100C40000FFA85473CA4DDB89377470085CB9147E1
:100C50003CA42945EF001012183493876181118B51
:100C600001CB98231367270098A39C236FF01F8D57
:100C700098231377D70F98A36FF05F8C38A46FF089
:100C8000FF8B1387418308A3B737024023AEE744A5
:100C90000547239EE74C03C7E74D1377C70F238F04
:100CA000E74C1387C1821C2393F7F70FFDDB23006A
:100CB0000700828003C5D1828280A3860182B73774
:100CC000024003C7F74D1377C70FA38FE74C82800D
:100CD00013850188828001A0B707EFBE37E700E0E7
:100CE000938707083CC701A0EFF20FCE6D7109454D
:100CF000EF00606E6D2CEF00900585454145EF00DB
:100D0000E076930780043EC68D473EC44C009307AF
:100D10000010371501407C82D52B8545370500181A
:100D2000EF00A07601453D290545EF00E0707921EF
:100D30001145BD212A842145A52185679387472335
:100D40006315F4069567938787676310F506EFF0E0
:100D50000FE60545EFF02FEF83C7318193F7F70FCB
:100D6000E5DFB7240008054ABD21130510038521DE
:100D7000054923A29180138441807D5BB70B00FF5E
:100D8000370CFF00053F7DDDA1371C41AA8AB1EB7E
:100D900008408529084093854A0059291C409387BB
:100DA00007101CC0193F0D49F1BFB727000803A762
:100DB00007F08547E30DF7F893050010371501405C
:100DC000312551D537150140F12181454145792D16
:100DD0000145EFF04FE789678287014551616FF068
:100DE0002FC2638B67014A8563867701E39C87FB8B
:100DF00003C504F079357DB7C935014904C0094CF4
:100E0000FD5A370B00FFB70BFF006D357DDDC9358F
:100E10001C419DE39307450013054510184094437A
:100E200010436303D6000549110718C09107E397E3
:100E3000A7FE6135114CD1BF638B57016285638674
:100E40006701E39877FF03C504F0253DDDB783A76D
:100E500004F0138404F0630EF90022855D268145B9
:100E60001306C00F4808EFF0AFBB0C0822854AC834
:100E7000C12649268145114531268145214519263E
:100E80007D54253DB70A00FF370BFF00937BF90F18
:100E900015357DDD353D1C41638B87001545638528
:100EA0005701639467015E85E93B013DD5B7E30DCA
:100EB00049EB09BFB71702409843B706FFF041114D
:100EC0001367170098C3D84337060200758FD8C33D
:100ED0009843B706F7FEFD16758F98C39843B7067B
:100EE000FCFFFD16758F98C3D843B70601FFFD16AA
:100EF000758FD8C39843B70600ECFD16758F98C35D
:100F00003707FF0098C723A6070202C402C698430A
:100F1000C166558F98C3B716024005679C42F18F92
:100F20003EC6A24785073EC4B24781E7A247E39782
:100F3000E7FEB71702409C431397E7006357070685
:100F400085473EC632478547631FF704B7170240FF
:100F5000D843B706C1FFFD16D8C3D843D8C3D8437A
:100F600013670740D8C3D843758FD8C3D843B70693
:100F70002900558FD8C39843B7060001558F98C3F1
:100F8000984393166700E3DD06FED843B716024088
:100F9000719BD8C3D84313672700D8C32147DC42CD
:100FA000B18BE39EE7FE4101828002C661BFB716A6
:100FB0000240D8421146318B938781806305C70078
:100FC00021466308C70237177A001307072098C322
:100FD00037170240584311839376F70037070020F4
:100FE000130707073697142398433357D70098C33E
:100FF0008280D842D442416649833D8BF18E1306EC
:10100000270015CF3D47630FE6024147630FE60215
:10101000454781456313E6004146A1E23747024058
:1010200003270780418B0DC737177A001307072066
:101030003306C70290C3C9DD9843058349BF814584
:101040004946E1BF85453546C9BF81453D46F1B7B3
:1010500037173D0013070790E1BF37150240585579
:101060009316F700585563DF060411833D8B9306F2
:10107000170037177A00130707203357D70298C392
:101080005455A182BD8A8DE295463307D702058368
:1010900098C337170240585794433D8B050733D701
:1010A000E60298C3984369B705456394A600E546F0
:1010B000E9BF3D456396A600D1463387E602C9BF26
:1010C0008906E5BF3D8B9306170037177A00130793
:1010D00007203357D702F1B701A097F1FF1F938183
:1010E000617A177100201301E1F117050000130563
:1010F000A56697F5FF1F9385E5F01386018163FAD6
:10110000C5008322050023A0550011059105E3EADF
:10111000C5FE13850181938501C96377B50023203E
:1011200005001105E36DB5FEFD42739002BCAD42B2
:1011300073904280B782000093828288739002305D
:1011400097F2FFFF938242EC93E2320073905230A9
:10115000EFF05FD697020000938242B97390123489
:101160007300203037770040130707C01E3B09C5C6
:1011700093E717001EBB8280C207C183F99BC20799
:10118000C183CDBF4111B777004002C6938707C026
:101190003EC6B2473E952AC6B2478CC34101828003
:1011A0004111B777004002C6938707C03EC6B247D9
:1011B0003E952AC6B2478A2341018280B777004014
:1011C00003D747C313671700239AE7C28280B72764
:1011D0000240C8C78280B7066745B727024093869A
:1011E00036123797EFCDD4C31307B79AD8C3D4D3E9
:1011F000D8D38280372702401C4BA166D58F1CCBE9
:101200008280B7270240984BB7060200137505F09D
:10121000558F98CBC8CB984B1367070498CBD8470A
:10122000058B75FF984B8176FD16758F98CB828064
:10123000372702401C4BC166137505F0D58F1CCBB8
:101240005C47858BF5FF372702405C47898BF5FFAC
:101250003727024013060010B386F50003A80600E6
:10126000B306F50023A006015447898AF5FE9107CD
:10127000E394C7FE1C4BB7062000D58F1CCBB727C5
:101280000240D847058B75FF984BC176FD16758FC8
:1012900098CB8280EFE2DFF5B71701401387078014
:1012A000631AE50085451145012481451145ED2A64
:1012B0006FE05FF6138707C06318E5008545214599
:1012C000E52281452145E5B76318F500854541458F
:1012D000E12A81454145E1BF93870740631AF50044
:1012E000854513050002C922814513050002C1B7D7
:1012F000B727014093870780E31CF5FA854513055E
:1013000000045D2281451305000455B79C4513F781
:10131000070113F8F70001C7D8413368E8008E21B0
:1013200013F7F50F39C318418146854E3D4F930F92
:10133000800293028004214E3396DE00B3F8C5008C
:10134000631116039398260033131F011343F3FF11
:101350003377E300B318180133E7E800639FF7051C
:1013600050C98506E39AC6FD18C11307F00F6375CF
:10137000B70454412146854E3D4F930F800293029E
:101380008004414EB398CE0033F715016392E80212
:101390001317260001173313EF001343F3FFB3763F
:1013A000D3003317E800D98E639DF701232A150176
:1013B0000506E319C6FD54C18280E39457FA10C9AB
:1013C0004DB7E39757FE23281501DDB708456D8D0E
:1013D0003335A000828023ACA182828003A7818361
:1013E000894710216311F70214318D4763EDD7004F
:1013F0003C219A0637E700E09607D58F93F7F70F61
:1014000032972300F740544105479357560033174E
:10141000C70089CA938707048A07B7E600E0B69732
:1014200098C3828093870706B7E600E08A07B697DD
:1014300098C30F1000008280377700401C4309C515
:1014400093E707101CC3828093F7F7EFE5BF99C5B8
:10145000371702405C4B5D8D48CB8280B717024046
:10146000D84B1345F5FF798DC8CB828099C53717C6
:1014700002401C4F5D8D08CF8280B7170240984F05
:101480001345F5FF798D88CF828099C537170240C3
:101490005C4F5D8D48CF8280B7170240D84F13450F
:1014A000F5FF798DC8CF828099C5371702405C4718
:1014B0005D8D48C78280B7170240D8471345F5FFB6
:1014C000798DC8C78280B7170240D857B70600F990
:1014D000FD16758FD8D7D8576205598DC8D7828029
:1014E000B7170240D857B70600F8FD16758FD8D742
:1014F000D8576E05598DC8D78280B7170240D85784
:10150000B70600D0FD16758FD8D7D8577205598DFC
:10151000C8D7828009C9371702405C57B706004018
:10152000D58F5CD78280B7160240DC56370700C0E3
:101530007D17F98FDCD68280371702405C577E0515
:10154000860785835CD75C575D8D48D7828083A7EB
:10155000818037177A0013070720B3D7E70293F784
:10156000F70F238FF1821307803EB387E702239E94
:10157000F1828280B7F700E0D8438146799BD8C3D7
:1015800003C7E1833306A70290CBD4CB98431367FC
:10159000070198C398431367170298C3D843058B74
:1015A00075DF9843799B98C38280B3C7A5008D8B64
:1015B0003307C50081E78D4763EDC700AA87637EC7
:1015C000E508942185078505A38FD7FEE3EBE7FEA9
:1015D000828093763500AA8789CA9421850785057C
:1015E000A38FD7FE93F63700C5BF9376C7FF138648
:1015F00006FE63F0C70683A3050083A2450083AF00
:10160000850003AFC50083AE050103AE450103A30A
:10161000850183A8C5019385450223A0770003A80F
:10162000C5FF23A2570023A4F70123A6E70123A89F
:10163000D70123AAC70123AC670023AE1701938704
:10164000470223AE07FF75B790419107910523AE7E
:10165000C7FEE3EBD7FEE3E6E7F68280920B0000DD
:101660007C0A0000CE0A0000F20A0000CE0A000048
:101670000A0A000022080000CE0A0000540A0000F6
:101680006A0A0000140A0000140A00000902290076
:1016900001010080FA090400000203000000092192
:1016A00010010001222000070501030002010705C7
:1016B0008103000201000000290000000902090066
:1016C00000010080FA00000012010002000000404A
:1016D000861A020001000102030100000600FF0952
:1016E00001A1010902150025FF752095419102090C
:1016F00003150025FF750895018102C00E037700D0
:10170000630068002E0063006E00000028034300A1
:101710004800330032002D005500410043002D00E9
:1017200042004F004F0054004C004F004100440065
:10173000450052000A060002EF02014001000000CD
:10174000140332003000320035002D0036002D0029
:04175000310038002C
:10175400000000000000000000AAAAAAAAAAAAAADF
:10176400AAEEEEEEEEEEEEEEEEFEFFFFFFFFFFFF63
:10177400FFFFFFFFFF7FBFDFEFF7FBFDFC7EBFDF57
:10178400EFF7FBFD7E0000000907000000000000E9
:101794000000000000000000000000000000000045
:1017A4000000000000000000000000000000000035
:1017B4000000000009070000000000000000000015
:1017C40000000000000000000102030406070809ED
:1017D4008C1600000020000800D8B8050403090492
:00000001FF
